{
    "hash": "d98309eb66c6475a8db647d715f2f50fdb0db18e9fb1728c7331c662979fdc9b",
    "confirmations": 981,
    "strippedsize": 3500,
    "size": 3500,
    "weight": 14000,
    "height": 5240000,
    "version": 6422788,
    "versionHex": "00620104",
    "merkleroot": "af66216195772e56eb553a4b7e349db5ec4927978b782854eec493b37c42e358",
    "tx": [
        "92709d5b80073800c89ef1d873add5f8a586bf6a49e5c688eaa81495b022c82f",
        "21721998fdbd8e6aecb7cf442733034638d72643472208d7d5e530086b6baad1",
        "3e9e0491b111bc50b002807d2664267e98ebe77f2a39a9570a91b31d33f5ecaa",
        "4a5b4db440ed97c97be564bc4a07c7cb6753efee04135967cd2c2d4f7012e3e5",
        "1b759f9459f0fb92f221c28b7477ccf85cf8ae8fd0562e0e225ab4f248604ad9",
        "d3c0844e03c430c216b0dbd9190b533fc09454bd9a07982349a81d5b6e983c20",
        "60eae617ea768ea8c830226d695fc5c547aacd4b275bde249cbe7833a389cc5e",
        "723b1bd4f333424b43112430a7877c3aff7889970edd2bd2efcd4a2d9359d9cf",
        "1d05dc834c57cf5b3c089db21639f79c594d56bc50c66e305e5211ba764a93f6",
        "b47decc8f2a6c7bd5103618790a48a2ce5379c49fe7ffb3742f124b5b04fd673",
        "bf49740c2858f9064b761ec88a12c529417052e1d6d5df9a7276deb2921d0c2f"
    ],
    "time": 1717515683,
    "mediantime": 1717515130,
    "nonce": 0,
    "bits": "1a0114c7",
    "difficulty": 15517533.70347894,
    "chainwork": "0000000000000000000000000000000000000000000011370d6e802afb09a767",
    "auxpow": {
        "tx": {
            "hex": "01000000010000000000000000000000000000000000000000000000000000000000000000ffffffff6403dc27292cfabe6d6dbc2f8d5496d9b920fb0a18737a60a334963cc4c72dbbe908d7db128823cde86708000000f09f909f092f4632506f6f6c2f62000000000000000000000000000000000000000000000000000000000000000000000005002f0000000000000002400b4725000000001976a914f2910ecaf7bb8d18ed71f0904e0e7456f29ce18288ac0000000000000000266a24aa21a9edc67ea6a89669d348de03e0e3a6741bfae9c22c319c47284ec8160e03352e497c13b39843",
            "txid": "4d64100932ad2e71a5619b9fad3a71885b651aeacc6b941d90e851620b61bfc0",
            "hash": "4d64100932ad2e71a5619b9fad3a71885b651aeacc6b941d90e851620b61bfc0",
            "size": 232,
            "vsize": 232,
            "version": 1,
            "locktime": 1134080787,
            "vin": [
                {
                    "coinbase": "03dc27292cfabe6d6dbc2f8d5496d9b920fb0a18737a60a334963cc4c72dbbe908d7db128823cde86708000000f09f909f092f4632506f6f6c2f62000000000000000000000000000000000000000000000000000000000000000000000005002f000000",
                    "sequence": 0
                }
            ],
            "vout": [
                {
                    "value": 6.25412928,
                    "n": 0,
                    "scriptPubKey": {
                        "asm": "OP_DUP OP_HASH160 f2910ecaf7bb8d18ed71f0904e0e7456f29ce182 OP_EQUALVERIFY OP_CHECKSIG",
                        "hex": "76a914f2910ecaf7bb8d18ed71f0904e0e7456f29ce18288ac",
                        "reqSigs": 1,
                        "type": "pubkeyhash",
                        "addresses": [
                            "DTFfqUPJctvKQuGCXkpL2sW99EXftxgPsF"
                        ]
                    }
                },
                {
                    "value": 0.00000000,
                    "n": 1,
                    "scriptPubKey": {
                        "asm": "OP_RETURN aa21a9edc67ea6a89669d348de03e0e3a6741bfae9c22c319c47284ec8160e03352e497c",
                        "hex": "6a24aa21a9edc67ea6a89669d348de03e0e3a6741bfae9c22c319c47284ec8160e03352e497c",
                        "type": "nulldata"
                    }
                }
            ],
            "blockhash": "4dfe00eaa216078b5440b3f88a01a89d36754e4af0e074d8b9a008336b4e57b3"
        },
        "index": 0,
        "chainindex": 0,
        "merklebranch": [
            "76c35069b0a3dfed5fe7956d0f8d0a57c4a9d1ee19eddf702643cc90e987c802",
            "f7ba6ab98b0b26dfec9c515691563ad943a6e752c586be38c564958d8f54c104",
            "80fb52dbb183ab6fe11e9c223e3b8a52b2c0043b2bce110356bd695194ee4421",
            "0e5165d2a9ceb4f908db678eec67e1d44d52b593e96c88abe82ef534ceb54dd2",
            "a788d67065b90073458f820c2b419da7e1bed436c25af7f409805ba58fcfc24e",
            "5f35c73ffc64a5cca9f81fabf304105a286c6b18efa5bbcc028d01e13c533e5c",
            "bcbd1303937ae85041ee447ff8941ae35de689b261d76a133f216b3e5ffcc15d"
        ],
        "chainmerklebranch": [
            "0000000000000000000000000000000000000000000000000000000000000001",
            "d1bb34ce429d1eb5e6fc9bc739dab9963e8bf34e757f216a33191eabf37ed14b",
            "a0469413ce64d67c43902d54ee3a380eff12ded22ca11cbd3842e15d48298103"
        ],
        "parentblock": "1400002002830c050b83c27cca24aa1fe72c61e864edb5138eea9fbe87ea4ab22ba2c0a826fff66b868c6315fc49108f01615ffce363c0504466d1a83b5c39c10bfc2d8ba3355f664ec4741956816975"
    },
    "previousblockhash": "97bb87c592bd17e9ba6702b87666f482adb2e1a3d2196f5fd1316b7f44e8d208",
    "nextblockhash": "462e43dc4cada0da37efc38dc64f0ed530a6f00e84eef7d8d1d10edbe9b3e8b4"
}